:09085B00750900F50A7FF47E0125
:10086400E4FDFCC3ED9FEC9E5015E4FAFB0BBB00CA
:0F087400010AEB64784A70F50DBD00010C80E4B9
:010883002252
:10080000750900750AFE850A80120860E4F50CF58A
:100810000DAF0A7801EF08800123D8FD12085B852F
:100820000A80050DE50D7002050CC39407E50C94D4
:100830000040DEE4F50CF50DAF0A7801EF08800109
:1008400003D8FD12085B850A80050DE50D700205D1
:0B0850000CC39407E50C940040DE226E
:1008840020900F7F0A7E0012086430900512080041
:0308940080FB22C4
:0508A30012088480FB37
:030000000208975C
:0C089700787FE4F6D8FD75810D0208A3FF
:00000001FF
